{
  "_format": "hh-sol-artifact-1",
  "contractName": "MageNFT",
  "sourceName": "contracts/MageNFT.sol",
  "abi": [
    {
      "inputs": [],
      "stateMutability": "nonpayable",
      "type": "constructor"
    },
    {
      "anonymous": false,
      "inputs": [
        {
          "indexed": true,
          "internalType": "address",
          "name": "owner",
          "type": "address"
        },
        {
          "indexed": true,
          "internalType": "address",
          "name": "approved",
          "type": "address"
        },
        {
          "indexed": true,
          "internalType": "uint256",
          "name": "tokenId",
          "type": "uint256"
        }
      ],
      "name": "Approval",
      "type": "event"
    },
    {
      "anonymous": false,
      "inputs": [
        {
          "indexed": true,
          "internalType": "address",
          "name": "owner",
          "type": "address"
        },
        {
          "indexed": true,
          "internalType": "address",
          "name": "operator",
          "type": "address"
        },
        {
          "indexed": false,
          "internalType": "bool",
          "name": "approved",
          "type": "bool"
        }
      ],
      "name": "ApprovalForAll",
      "type": "event"
    },
    {
      "anonymous": false,
      "inputs": [
        {
          "indexed": true,
          "internalType": "address",
          "name": "from",
          "type": "address"
        },
        {
          "indexed": true,
          "internalType": "address",
          "name": "to",
          "type": "address"
        },
        {
          "indexed": true,
          "internalType": "uint256",
          "name": "tokenId",
          "type": "uint256"
        }
      ],
      "name": "Transfer",
      "type": "event"
    },
    {
      "inputs": [
        {
          "internalType": "address",
          "name": "to",
          "type": "address"
        },
        {
          "internalType": "uint256",
          "name": "tokenId",
          "type": "uint256"
        }
      ],
      "name": "approve",
      "outputs": [],
      "stateMutability": "nonpayable",
      "type": "function"
    },
    {
      "inputs": [
        {
          "internalType": "address",
          "name": "owner",
          "type": "address"
        }
      ],
      "name": "balanceOf",
      "outputs": [
        {
          "internalType": "uint256",
          "name": "",
          "type": "uint256"
        }
      ],
      "stateMutability": "view",
      "type": "function"
    },
    {
      "inputs": [
        {
          "internalType": "uint256",
          "name": "tokenId",
          "type": "uint256"
        }
      ],
      "name": "getApproved",
      "outputs": [
        {
          "internalType": "address",
          "name": "",
          "type": "address"
        }
      ],
      "stateMutability": "view",
      "type": "function"
    },
    {
      "inputs": [
        {
          "internalType": "address",
          "name": "owner",
          "type": "address"
        },
        {
          "internalType": "address",
          "name": "operator",
          "type": "address"
        }
      ],
      "name": "isApprovedForAll",
      "outputs": [
        {
          "internalType": "bool",
          "name": "",
          "type": "bool"
        }
      ],
      "stateMutability": "view",
      "type": "function"
    },
    {
      "inputs": [
        {
          "internalType": "address",
          "name": "recipient",
          "type": "address"
        }
      ],
      "name": "mintTo",
      "outputs": [
        {
          "internalType": "uint256",
          "name": "",
          "type": "uint256"
        }
      ],
      "stateMutability": "nonpayable",
      "type": "function"
    },
    {
      "inputs": [],
      "name": "name",
      "outputs": [
        {
          "internalType": "string",
          "name": "",
          "type": "string"
        }
      ],
      "stateMutability": "view",
      "type": "function"
    },
    {
      "inputs": [
        {
          "internalType": "uint256",
          "name": "tokenId",
          "type": "uint256"
        }
      ],
      "name": "ownerOf",
      "outputs": [
        {
          "internalType": "address",
          "name": "",
          "type": "address"
        }
      ],
      "stateMutability": "view",
      "type": "function"
    },
    {
      "inputs": [
        {
          "internalType": "address",
          "name": "from",
          "type": "address"
        },
        {
          "internalType": "address",
          "name": "to",
          "type": "address"
        },
        {
          "internalType": "uint256",
          "name": "tokenId",
          "type": "uint256"
        }
      ],
      "name": "safeTransferFrom",
      "outputs": [],
      "stateMutability": "nonpayable",
      "type": "function"
    },
    {
      "inputs": [
        {
          "internalType": "address",
          "name": "from",
          "type": "address"
        },
        {
          "internalType": "address",
          "name": "to",
          "type": "address"
        },
        {
          "internalType": "uint256",
          "name": "tokenId",
          "type": "uint256"
        },
        {
          "internalType": "bytes",
          "name": "data",
          "type": "bytes"
        }
      ],
      "name": "safeTransferFrom",
      "outputs": [],
      "stateMutability": "nonpayable",
      "type": "function"
    },
    {
      "inputs": [
        {
          "internalType": "address",
          "name": "operator",
          "type": "address"
        },
        {
          "internalType": "bool",
          "name": "approved",
          "type": "bool"
        }
      ],
      "name": "setApprovalForAll",
      "outputs": [],
      "stateMutability": "nonpayable",
      "type": "function"
    },
    {
      "inputs": [
        {
          "internalType": "bytes4",
          "name": "interfaceId",
          "type": "bytes4"
        }
      ],
      "name": "supportsInterface",
      "outputs": [
        {
          "internalType": "bool",
          "name": "",
          "type": "bool"
        }
      ],
      "stateMutability": "view",
      "type": "function"
    },
    {
      "inputs": [],
      "name": "symbol",
      "outputs": [
        {
          "internalType": "string",
          "name": "",
          "type": "string"
        }
      ],
      "stateMutability": "view",
      "type": "function"
    },
    {
      "inputs": [
        {
          "internalType": "uint256",
          "name": "tokenId",
          "type": "uint256"
        }
      ],
      "name": "tokenURI",
      "outputs": [
        {
          "internalType": "string",
          "name": "",
          "type": "string"
        }
      ],
      "stateMutability": "view",
      "type": "function"
    },
    {
      "inputs": [
        {
          "internalType": "address",
          "name": "from",
          "type": "address"
        },
        {
          "internalType": "address",
          "name": "to",
          "type": "address"
        },
        {
          "internalType": "uint256",
          "name": "tokenId",
          "type": "uint256"
        }
      ],
      "name": "transferFrom",
      "outputs": [],
      "stateMutability": "nonpayable",
      "type": "function"
    }
  ],
  "bytecode": "0x60806040523480156200001157600080fd5b506040518060400160405280600781526020017f4d6167654e4654000000000000000000000000000000000000000000000000008152506040518060400160405280600481526020017f4d4e46540000000000000000000000000000000000000000000000000000000081525081600090816200008f919062000324565b508060019081620000a1919062000324565b5050506200040b565b600081519050919050565b7f4e487b7100000000000000000000000000000000000000000000000000000000600052604160045260246000fd5b7f4e487b7100000000000000000000000000000000000000000000000000000000600052602260045260246000fd5b600060028204905060018216806200012c57607f821691505b602082108103620001425762000141620000e4565b5b50919050565b60008190508160005260206000209050919050565b60006020601f8301049050919050565b600082821b905092915050565b600060088302620001ac7fffffffffffffffffffffffffffffffffffffffffffffffffffffffffffffffff826200016d565b620001b886836200016d565b95508019841693508086168417925050509392505050565b6000819050919050565b6000819050919050565b600062000205620001ff620001f984620001d0565b620001da565b620001d0565b9050919050565b6000819050919050565b6200022183620001e4565b6200023962000230826200020c565b8484546200017a565b825550505050565b600090565b6200025062000241565b6200025d81848462000216565b505050565b5b8181101562000285576200027960008262000246565b60018101905062000263565b5050565b601f821115620002d4576200029e8162000148565b620002a9846200015d565b81016020851015620002b9578190505b620002d1620002c8856200015d565b83018262000262565b50505b505050565b600082821c905092915050565b6000620002f960001984600802620002d9565b1980831691505092915050565b6000620003148383620002e6565b9150826002028217905092915050565b6200032f82620000aa565b67ffffffffffffffff8111156200034b576200034a620000b5565b5b62000357825462000113565b6200036482828562000289565b600060209050601f8311600181146200039c576000841562000387578287015190505b62000393858262000306565b86555062000403565b601f198416620003ac8662000148565b60005b82811015620003d657848901518255600182019150602085019450602081019050620003af565b86831015620003f65784890151620003f2601f891682620002e6565b8355505b6001600288020188555050505b505050505050565b612519806200041b6000396000f3fe608060405234801561001057600080fd5b50600436106100ea5760003560e01c806370a082311161008c578063a22cb46511610066578063a22cb4651461026f578063b88d4fde1461028b578063c87b56dd146102a7578063e985e9c5146102d7576100ea565b806370a08231146101f1578063755edd171461022157806395d89b4114610251576100ea565b8063095ea7b3116100c8578063095ea7b31461016d57806323b872dd1461018957806342842e0e146101a55780636352211e146101c1576100ea565b806301ffc9a7146100ef57806306fdde031461011f578063081812fc1461013d575b600080fd5b610109600480360381019061010491906116a5565b610307565b60405161011691906116ed565b60405180910390f35b6101276103e9565b6040516101349190611798565b60405180910390f35b610157600480360381019061015291906117f0565b61047b565b604051610164919061185e565b60405180910390f35b610187600480360381019061018291906118a5565b6104c1565b005b6101a3600480360381019061019e91906118e5565b6105d8565b005b6101bf60048036038101906101ba91906118e5565b610638565b005b6101db60048036038101906101d691906117f0565b610658565b6040516101e8919061185e565b60405180910390f35b61020b60048036038101906102069190611938565b610709565b6040516102189190611974565b60405180910390f35b61023b60048036038101906102369190611938565b6107c0565b6040516102489190611974565b60405180910390f35b6102596107ed565b6040516102669190611798565b60405180910390f35b610289600480360381019061028491906119bb565b61087f565b005b6102a560048036038101906102a09190611b30565b610895565b005b6102c160048036038101906102bc91906117f0565b6108f7565b6040516102ce9190611798565b60405180910390f35b6102f160048036038101906102ec9190611bb3565b61095f565b6040516102fe91906116ed565b60405180910390f35b60007f80ac58cd000000000000000000000000000000000000000000000000000000007bffffffffffffffffffffffffffffffffffffffffffffffffffffffff1916827bffffffffffffffffffffffffffffffffffffffffffffffffffffffff191614806103d257507f5b5e139f000000000000000000000000000000000000000000000000000000007bffffffffffffffffffffffffffffffffffffffffffffffffffffffff1916827bffffffffffffffffffffffffffffffffffffffffffffffffffffffff1916145b806103e257506103e1826109f3565b5b9050919050565b6060600080546103f890611c22565b80601f016020809104026020016040519081016040528092919081815260200182805461042490611c22565b80156104715780601f1061044657610100808354040283529160200191610471565b820191906000526020600020905b81548152906001019060200180831161045457829003601f168201915b5050505050905090565b600061048682610a5d565b6004600083815260200190815260200160002060009054906101000a900473ffffffffffffffffffffffffffffffffffffffff169050919050565b60006104cc82610658565b90508073ffffffffffffffffffffffffffffffffffffffff168373ffffffffffffffffffffffffffffffffffffffff160361053c576040517f08c379a000000000000000000000000000000000000000000000000000000000815260040161053390611cc5565b60405180910390fd5b8073ffffffffffffffffffffffffffffffffffffffff1661055b610aa8565b73ffffffffffffffffffffffffffffffffffffffff16148061058a575061058981610584610aa8565b61095f565b5b6105c9576040517f08c379a00000000000000000000000000000000000000000000000000000000081526004016105c090611d57565b60405180910390fd5b6105d38383610ab0565b505050565b6105e96105e3610aa8565b82610b69565b610628576040517f08c379a000000000000000000000000000000000000000000000000000000000815260040161061f90611de9565b60405180910390fd5b610633838383610bfe565b505050565b61065383838360405180602001604052806000815250610895565b505050565b6000806002600084815260200190815260200160002060009054906101000a900473ffffffffffffffffffffffffffffffffffffffff169050600073ffffffffffffffffffffffffffffffffffffffff168173ffffffffffffffffffffffffffffffffffffffff1603610700576040517f08c379a00000000000000000000000000000000000000000000000000000000081526004016106f790611e55565b60405180910390fd5b80915050919050565b60008073ffffffffffffffffffffffffffffffffffffffff168273ffffffffffffffffffffffffffffffffffffffff1603610779576040517f08c379a000000000000000000000000000000000000000000000000000000000815260040161077090611ee7565b60405180910390fd5b600360008373ffffffffffffffffffffffffffffffffffffffff1673ffffffffffffffffffffffffffffffffffffffff168152602001908152602001600020549050919050565b60006107cc6006610e64565b60006107d86006610e7a565b90506107e48382610e88565b80915050919050565b6060600180546107fc90611c22565b80601f016020809104026020016040519081016040528092919081815260200182805461082890611c22565b80156108755780601f1061084a57610100808354040283529160200191610875565b820191906000526020600020905b81548152906001019060200180831161085857829003601f168201915b5050505050905090565b61089161088a610aa8565b8383610ea6565b5050565b6108a66108a0610aa8565b83610b69565b6108e5576040517f08c379a00000000000000000000000000000000000000000000000000000000081526004016108dc90611de9565b60405180910390fd5b6108f184848484611012565b50505050565b606061090282610a5d565b600061090c61106e565b9050600081511161092c5760405180602001604052806000815250610957565b8061093684611085565b604051602001610947929190611f43565b6040516020818303038152906040525b915050919050565b6000600560008473ffffffffffffffffffffffffffffffffffffffff1673ffffffffffffffffffffffffffffffffffffffff16815260200190815260200160002060008373ffffffffffffffffffffffffffffffffffffffff1673ffffffffffffffffffffffffffffffffffffffff16815260200190815260200160002060009054906101000a900460ff16905092915050565b60007f01ffc9a7000000000000000000000000000000000000000000000000000000007bffffffffffffffffffffffffffffffffffffffffffffffffffffffff1916827bffffffffffffffffffffffffffffffffffffffffffffffffffffffff1916149050919050565b610a66816111e5565b610aa5576040517f08c379a0000000000000000000000000000000000000000000000000000000008152600401610a9c90611e55565b60405180910390fd5b50565b600033905090565b816004600083815260200190815260200160002060006101000a81548173ffffffffffffffffffffffffffffffffffffffff021916908373ffffffffffffffffffffffffffffffffffffffff160217905550808273ffffffffffffffffffffffffffffffffffffffff16610b2383610658565b73ffffffffffffffffffffffffffffffffffffffff167f8c5be1e5ebec7d5bd14f71427d1e84f3dd0314c0f7b2291e5b200ac8c7c3b92560405160405180910390a45050565b600080610b7583610658565b90508073ffffffffffffffffffffffffffffffffffffffff168473ffffffffffffffffffffffffffffffffffffffff161480610bb75750610bb6818561095f565b5b80610bf557508373ffffffffffffffffffffffffffffffffffffffff16610bdd8461047b565b73ffffffffffffffffffffffffffffffffffffffff16145b91505092915050565b8273ffffffffffffffffffffffffffffffffffffffff16610c1e82610658565b73ffffffffffffffffffffffffffffffffffffffff1614610c74576040517f08c379a0000000000000000000000000000000000000000000000000000000008152600401610c6b90611fd9565b60405180910390fd5b600073ffffffffffffffffffffffffffffffffffffffff168273ffffffffffffffffffffffffffffffffffffffff1603610ce3576040517f08c379a0000000000000000000000000000000000000000000000000000000008152600401610cda9061206b565b60405180910390fd5b610cee838383611251565b610cf9600082610ab0565b6001600360008573ffffffffffffffffffffffffffffffffffffffff1673ffffffffffffffffffffffffffffffffffffffff1681526020019081526020016000206000828254610d4991906120ba565b925050819055506001600360008473ffffffffffffffffffffffffffffffffffffffff1673ffffffffffffffffffffffffffffffffffffffff1681526020019081526020016000206000828254610da091906120ee565b92505081905550816002600083815260200190815260200160002060006101000a81548173ffffffffffffffffffffffffffffffffffffffff021916908373ffffffffffffffffffffffffffffffffffffffff160217905550808273ffffffffffffffffffffffffffffffffffffffff168473ffffffffffffffffffffffffffffffffffffffff167fddf252ad1be2c89b69c2b068fc378daa952ba7f163c4a11628f55a4df523b3ef60405160405180910390a4610e5f838383611256565b505050565b6001816000016000828254019250508190555050565b600081600001549050919050565b610ea282826040518060200160405280600081525061125b565b5050565b8173ffffffffffffffffffffffffffffffffffffffff168373ffffffffffffffffffffffffffffffffffffffff1603610f14576040517f08c379a0000000000000000000000000000000000000000000000000000000008152600401610f0b9061216e565b60405180910390fd5b80600560008573ffffffffffffffffffffffffffffffffffffffff1673ffffffffffffffffffffffffffffffffffffffff16815260200190815260200160002060008473ffffffffffffffffffffffffffffffffffffffff1673ffffffffffffffffffffffffffffffffffffffff16815260200190815260200160002060006101000a81548160ff0219169083151502179055508173ffffffffffffffffffffffffffffffffffffffff168373ffffffffffffffffffffffffffffffffffffffff167f17307eab39ab6107e8899845ad3d59bd9653f200f220920489ca2b5937696c318360405161100591906116ed565b60405180910390a3505050565b61101d848484610bfe565b611029848484846112b6565b611068576040517f08c379a000000000000000000000000000000000000000000000000000000000815260040161105f90612200565b60405180910390fd5b50505050565b606060405180602001604052806000815250905090565b6060600082036110cc576040518060400160405280600181526020017f300000000000000000000000000000000000000000000000000000000000000081525090506111e0565b600082905060005b600082146110fe5780806110e790612220565b915050600a826110f79190612297565b91506110d4565b60008167ffffffffffffffff81111561111a57611119611a05565b5b6040519080825280601f01601f19166020018201604052801561114c5781602001600182028036833780820191505090505b5090505b600085146111d95760018261116591906120ba565b9150600a8561117491906122c8565b603061118091906120ee565b60f81b818381518110611196576111956122f9565b5b60200101907effffffffffffffffffffffffffffffffffffffffffffffffffffffffffffff1916908160001a905350600a856111d29190612297565b9450611150565b8093505050505b919050565b60008073ffffffffffffffffffffffffffffffffffffffff166002600084815260200190815260200160002060009054906101000a900473ffffffffffffffffffffffffffffffffffffffff1673ffffffffffffffffffffffffffffffffffffffff1614159050919050565b505050565b505050565b611265838361143d565b61127260008484846112b6565b6112b1576040517f08c379a00000000000000000000000000000000000000000000000000000000081526004016112a890612200565b60405180910390fd5b505050565b60006112d78473ffffffffffffffffffffffffffffffffffffffff16611616565b15611430578373ffffffffffffffffffffffffffffffffffffffff1663150b7a02611300610aa8565b8786866040518563ffffffff1660e01b8152600401611322949392919061237d565b6020604051808303816000875af192505050801561135e57506040513d601f19601f8201168201806040525081019061135b91906123de565b60015b6113e0573d806000811461138e576040519150601f19603f3d011682016040523d82523d6000602084013e611393565b606091505b5060008151036113d8576040517f08c379a00000000000000000000000000000000000000000000000000000000081526004016113cf90612200565b60405180910390fd5b805181602001fd5b63150b7a0260e01b7bffffffffffffffffffffffffffffffffffffffffffffffffffffffff1916817bffffffffffffffffffffffffffffffffffffffffffffffffffffffff191614915050611435565b600190505b949350505050565b600073ffffffffffffffffffffffffffffffffffffffff168273ffffffffffffffffffffffffffffffffffffffff16036114ac576040517f08c379a00000000000000000000000000000000000000000000000000000000081526004016114a390612457565b60405180910390fd5b6114b5816111e5565b156114f5576040517f08c379a00000000000000000000000000000000000000000000000000000000081526004016114ec906124c3565b60405180910390fd5b61150160008383611251565b6001600360008473ffffffffffffffffffffffffffffffffffffffff1673ffffffffffffffffffffffffffffffffffffffff168152602001908152602001600020600082825461155191906120ee565b92505081905550816002600083815260200190815260200160002060006101000a81548173ffffffffffffffffffffffffffffffffffffffff021916908373ffffffffffffffffffffffffffffffffffffffff160217905550808273ffffffffffffffffffffffffffffffffffffffff16600073ffffffffffffffffffffffffffffffffffffffff167fddf252ad1be2c89b69c2b068fc378daa952ba7f163c4a11628f55a4df523b3ef60405160405180910390a461161260008383611256565b5050565b6000808273ffffffffffffffffffffffffffffffffffffffff163b119050919050565b6000604051905090565b600080fd5b600080fd5b60007fffffffff0000000000000000000000000000000000000000000000000000000082169050919050565b6116828161164d565b811461168d57600080fd5b50565b60008135905061169f81611679565b92915050565b6000602082840312156116bb576116ba611643565b5b60006116c984828501611690565b91505092915050565b60008115159050919050565b6116e7816116d2565b82525050565b600060208201905061170260008301846116de565b92915050565b600081519050919050565b600082825260208201905092915050565b60005b83811015611742578082015181840152602081019050611727565b60008484015250505050565b6000601f19601f8301169050919050565b600061176a82611708565b6117748185611713565b9350611784818560208601611724565b61178d8161174e565b840191505092915050565b600060208201905081810360008301526117b2818461175f565b905092915050565b6000819050919050565b6117cd816117ba565b81146117d857600080fd5b50565b6000813590506117ea816117c4565b92915050565b60006020828403121561180657611805611643565b5b6000611814848285016117db565b91505092915050565b600073ffffffffffffffffffffffffffffffffffffffff82169050919050565b60006118488261181d565b9050919050565b6118588161183d565b82525050565b6000602082019050611873600083018461184f565b92915050565b6118828161183d565b811461188d57600080fd5b50565b60008135905061189f81611879565b92915050565b600080604083850312156118bc576118bb611643565b5b60006118ca85828601611890565b92505060206118db858286016117db565b9150509250929050565b6000806000606084860312156118fe576118fd611643565b5b600061190c86828701611890565b935050602061191d86828701611890565b925050604061192e868287016117db565b9150509250925092565b60006020828403121561194e5761194d611643565b5b600061195c84828501611890565b91505092915050565b61196e816117ba565b82525050565b60006020820190506119896000830184611965565b92915050565b611998816116d2565b81146119a357600080fd5b50565b6000813590506119b58161198f565b92915050565b600080604083850312156119d2576119d1611643565b5b60006119e085828601611890565b92505060206119f1858286016119a6565b9150509250929050565b600080fd5b600080fd5b7f4e487b7100000000000000000000000000000000000000000000000000000000600052604160045260246000fd5b611a3d8261174e565b810181811067ffffffffffffffff82111715611a5c57611a5b611a05565b5b80604052505050565b6000611a6f611639565b9050611a7b8282611a34565b919050565b600067ffffffffffffffff821115611a9b57611a9a611a05565b5b611aa48261174e565b9050602081019050919050565b82818337600083830152505050565b6000611ad3611ace84611a80565b611a65565b905082815260208101848484011115611aef57611aee611a00565b5b611afa848285611ab1565b509392505050565b600082601f830112611b1757611b166119fb565b5b8135611b27848260208601611ac0565b91505092915050565b60008060008060808587031215611b4a57611b49611643565b5b6000611b5887828801611890565b9450506020611b6987828801611890565b9350506040611b7a878288016117db565b925050606085013567ffffffffffffffff811115611b9b57611b9a611648565b5b611ba787828801611b02565b91505092959194509250565b60008060408385031215611bca57611bc9611643565b5b6000611bd885828601611890565b9250506020611be985828601611890565b9150509250929050565b7f4e487b7100000000000000000000000000000000000000000000000000000000600052602260045260246000fd5b60006002820490506001821680611c3a57607f821691505b602082108103611c4d57611c4c611bf3565b5b50919050565b7f4552433732313a20617070726f76616c20746f2063757272656e74206f776e6560008201527f7200000000000000000000000000000000000000000000000000000000000000602082015250565b6000611caf602183611713565b9150611cba82611c53565b604082019050919050565b60006020820190508181036000830152611cde81611ca2565b9050919050565b7f4552433732313a20617070726f76652063616c6c6572206973206e6f7420746f60008201527f6b656e206f776e6572206e6f7220617070726f76656420666f7220616c6c0000602082015250565b6000611d41603e83611713565b9150611d4c82611ce5565b604082019050919050565b60006020820190508181036000830152611d7081611d34565b9050919050565b7f4552433732313a2063616c6c6572206973206e6f7420746f6b656e206f776e6560008201527f72206e6f7220617070726f766564000000000000000000000000000000000000602082015250565b6000611dd3602e83611713565b9150611dde82611d77565b604082019050919050565b60006020820190508181036000830152611e0281611dc6565b9050919050565b7f4552433732313a20696e76616c696420746f6b656e2049440000000000000000600082015250565b6000611e3f601883611713565b9150611e4a82611e09565b602082019050919050565b60006020820190508181036000830152611e6e81611e32565b9050919050565b7f4552433732313a2061646472657373207a65726f206973206e6f74206120766160008201527f6c6964206f776e65720000000000000000000000000000000000000000000000602082015250565b6000611ed1602983611713565b9150611edc82611e75565b604082019050919050565b60006020820190508181036000830152611f0081611ec4565b9050919050565b600081905092915050565b6000611f1d82611708565b611f278185611f07565b9350611f37818560208601611724565b80840191505092915050565b6000611f4f8285611f12565b9150611f5b8284611f12565b91508190509392505050565b7f4552433732313a207472616e736665722066726f6d20696e636f72726563742060008201527f6f776e6572000000000000000000000000000000000000000000000000000000602082015250565b6000611fc3602583611713565b9150611fce82611f67565b604082019050919050565b60006020820190508181036000830152611ff281611fb6565b9050919050565b7f4552433732313a207472616e7366657220746f20746865207a65726f2061646460008201527f7265737300000000000000000000000000000000000000000000000000000000602082015250565b6000612055602483611713565b915061206082611ff9565b604082019050919050565b6000602082019050818103600083015261208481612048565b9050919050565b7f4e487b7100000000000000000000000000000000000000000000000000000000600052601160045260246000fd5b60006120c5826117ba565b91506120d0836117ba565b92508282039050818111156120e8576120e761208b565b5b92915050565b60006120f9826117ba565b9150612104836117ba565b925082820190508082111561211c5761211b61208b565b5b92915050565b7f4552433732313a20617070726f766520746f2063616c6c657200000000000000600082015250565b6000612158601983611713565b915061216382612122565b602082019050919050565b600060208201905081810360008301526121878161214b565b9050919050565b7f4552433732313a207472616e7366657220746f206e6f6e20455243373231526560008201527f63656976657220696d706c656d656e7465720000000000000000000000000000602082015250565b60006121ea603283611713565b91506121f58261218e565b604082019050919050565b60006020820190508181036000830152612219816121dd565b9050919050565b600061222b826117ba565b91507fffffffffffffffffffffffffffffffffffffffffffffffffffffffffffffffff820361225d5761225c61208b565b5b600182019050919050565b7f4e487b7100000000000000000000000000000000000000000000000000000000600052601260045260246000fd5b60006122a2826117ba565b91506122ad836117ba565b9250826122bd576122bc612268565b5b828204905092915050565b60006122d3826117ba565b91506122de836117ba565b9250826122ee576122ed612268565b5b828206905092915050565b7f4e487b7100000000000000000000000000000000000000000000000000000000600052603260045260246000fd5b600081519050919050565b600082825260208201905092915050565b600061234f82612328565b6123598185612333565b9350612369818560208601611724565b6123728161174e565b840191505092915050565b6000608082019050612392600083018761184f565b61239f602083018661184f565b6123ac6040830185611965565b81810360608301526123be8184612344565b905095945050505050565b6000815190506123d881611679565b92915050565b6000602082840312156123f4576123f3611643565b5b6000612402848285016123c9565b91505092915050565b7f4552433732313a206d696e7420746f20746865207a65726f2061646472657373600082015250565b6000612441602083611713565b915061244c8261240b565b602082019050919050565b6000602082019050818103600083015261247081612434565b9050919050565b7f4552433732313a20746f6b656e20616c7265616479206d696e74656400000000600082015250565b60006124ad601c83611713565b91506124b882612477565b602082019050919050565b600060208201905081810360008301526124dc816124a0565b905091905056fea2646970667358221220c72ea2357135655e76d789fdee469dd0ee457e8522603f1e615be1eb58f62b9064736f6c63430008110033",
  "linkReferences": {},
  "deployedLinkReferences": {}
}