{
  "_format": "hh-sol-artifact-1",
  "contractName": "MageToken",
  "sourceName": "contracts/MageToken.sol",
  "abi": [
    {
      "inputs": [],
      "stateMutability": "nonpayable",
      "type": "constructor"
    },
    {
      "anonymous": false,
      "inputs": [
        {
          "indexed": true,
          "internalType": "address",
          "name": "owner",
          "type": "address"
        },
        {
          "indexed": true,
          "internalType": "address",
          "name": "spender",
          "type": "address"
        },
        {
          "indexed": false,
          "internalType": "uint256",
          "name": "value",
          "type": "uint256"
        }
      ],
      "name": "Approval",
      "type": "event"
    },
    {
      "anonymous": false,
      "inputs": [
        {
          "indexed": true,
          "internalType": "address",
          "name": "from",
          "type": "address"
        },
        {
          "indexed": true,
          "internalType": "address",
          "name": "to",
          "type": "address"
        },
        {
          "indexed": false,
          "internalType": "uint256",
          "name": "value",
          "type": "uint256"
        }
      ],
      "name": "Transfer",
      "type": "event"
    },
    {
      "inputs": [
        {
          "internalType": "address",
          "name": "owner",
          "type": "address"
        },
        {
          "internalType": "address",
          "name": "spender",
          "type": "address"
        }
      ],
      "name": "allowance",
      "outputs": [
        {
          "internalType": "uint256",
          "name": "",
          "type": "uint256"
        }
      ],
      "stateMutability": "view",
      "type": "function"
    },
    {
      "inputs": [
        {
          "internalType": "address",
          "name": "spender",
          "type": "address"
        },
        {
          "internalType": "uint256",
          "name": "amount",
          "type": "uint256"
        }
      ],
      "name": "approve",
      "outputs": [
        {
          "internalType": "bool",
          "name": "",
          "type": "bool"
        }
      ],
      "stateMutability": "nonpayable",
      "type": "function"
    },
    {
      "inputs": [
        {
          "internalType": "address",
          "name": "account",
          "type": "address"
        }
      ],
      "name": "balanceOf",
      "outputs": [
        {
          "internalType": "uint256",
          "name": "",
          "type": "uint256"
        }
      ],
      "stateMutability": "view",
      "type": "function"
    },
    {
      "inputs": [],
      "name": "decimals",
      "outputs": [
        {
          "internalType": "uint8",
          "name": "",
          "type": "uint8"
        }
      ],
      "stateMutability": "view",
      "type": "function"
    },
    {
      "inputs": [
        {
          "internalType": "address",
          "name": "spender",
          "type": "address"
        },
        {
          "internalType": "uint256",
          "name": "subtractedValue",
          "type": "uint256"
        }
      ],
      "name": "decreaseAllowance",
      "outputs": [
        {
          "internalType": "bool",
          "name": "",
          "type": "bool"
        }
      ],
      "stateMutability": "nonpayable",
      "type": "function"
    },
    {
      "inputs": [
        {
          "internalType": "address",
          "name": "spender",
          "type": "address"
        },
        {
          "internalType": "uint256",
          "name": "addedValue",
          "type": "uint256"
        }
      ],
      "name": "increaseAllowance",
      "outputs": [
        {
          "internalType": "bool",
          "name": "",
          "type": "bool"
        }
      ],
      "stateMutability": "nonpayable",
      "type": "function"
    },
    {
      "inputs": [
        {
          "internalType": "address",
          "name": "recipient",
          "type": "address"
        },
        {
          "internalType": "uint256",
          "name": "amount",
          "type": "uint256"
        }
      ],
      "name": "mintTo",
      "outputs": [],
      "stateMutability": "nonpayable",
      "type": "function"
    },
    {
      "inputs": [],
      "name": "name",
      "outputs": [
        {
          "internalType": "string",
          "name": "",
          "type": "string"
        }
      ],
      "stateMutability": "view",
      "type": "function"
    },
    {
      "inputs": [],
      "name": "symbol",
      "outputs": [
        {
          "internalType": "string",
          "name": "",
          "type": "string"
        }
      ],
      "stateMutability": "view",
      "type": "function"
    },
    {
      "inputs": [],
      "name": "totalSupply",
      "outputs": [
        {
          "internalType": "uint256",
          "name": "",
          "type": "uint256"
        }
      ],
      "stateMutability": "view",
      "type": "function"
    },
    {
      "inputs": [
        {
          "internalType": "address",
          "name": "to",
          "type": "address"
        },
        {
          "internalType": "uint256",
          "name": "amount",
          "type": "uint256"
        }
      ],
      "name": "transfer",
      "outputs": [
        {
          "internalType": "bool",
          "name": "",
          "type": "bool"
        }
      ],
      "stateMutability": "nonpayable",
      "type": "function"
    },
    {
      "inputs": [
        {
          "internalType": "address",
          "name": "from",
          "type": "address"
        },
        {
          "internalType": "address",
          "name": "to",
          "type": "address"
        },
        {
          "internalType": "uint256",
          "name": "amount",
          "type": "uint256"
        }
      ],
      "name": "transferFrom",
      "outputs": [
        {
          "internalType": "bool",
          "name": "",
          "type": "bool"
        }
      ],
      "stateMutability": "nonpayable",
      "type": "function"
    }
  ],
  "bytecode": "0x60806040523480156200001157600080fd5b506040518060400160405280600981526020017f4d616765546f6b656e00000000000000000000000000000000000000000000008152506040518060400160405280600281526020017f4d5400000000000000000000000000000000000000000000000000000000000081525081600390816200008f919062000324565b508060049081620000a1919062000324565b5050506200040b565b600081519050919050565b7f4e487b7100000000000000000000000000000000000000000000000000000000600052604160045260246000fd5b7f4e487b7100000000000000000000000000000000000000000000000000000000600052602260045260246000fd5b600060028204905060018216806200012c57607f821691505b602082108103620001425762000141620000e4565b5b50919050565b60008190508160005260206000209050919050565b60006020601f8301049050919050565b600082821b905092915050565b600060088302620001ac7fffffffffffffffffffffffffffffffffffffffffffffffffffffffffffffffff826200016d565b620001b886836200016d565b95508019841693508086168417925050509392505050565b6000819050919050565b6000819050919050565b600062000205620001ff620001f984620001d0565b620001da565b620001d0565b9050919050565b6000819050919050565b6200022183620001e4565b6200023962000230826200020c565b8484546200017a565b825550505050565b600090565b6200025062000241565b6200025d81848462000216565b505050565b5b8181101562000285576200027960008262000246565b60018101905062000263565b5050565b601f821115620002d4576200029e8162000148565b620002a9846200015d565b81016020851015620002b9578190505b620002d1620002c8856200015d565b83018262000262565b50505b505050565b600082821c905092915050565b6000620002f960001984600802620002d9565b1980831691505092915050565b6000620003148383620002e6565b9150826002028217905092915050565b6200032f82620000aa565b67ffffffffffffffff8111156200034b576200034a620000b5565b5b62000357825462000113565b6200036482828562000289565b600060209050601f8311600181146200039c576000841562000387578287015190505b62000393858262000306565b86555062000403565b601f198416620003ac8662000148565b60005b82811015620003d657848901518255600182019150602085019450602081019050620003af565b86831015620003f65784890151620003f2601f891682620002e6565b8355505b6001600288020188555050505b505050505050565b611438806200041b6000396000f3fe608060405234801561001057600080fd5b50600436106100b45760003560e01c8063449a52f811610071578063449a52f8146101a357806370a08231146101bf57806395d89b41146101ef578063a457c2d71461020d578063a9059cbb1461023d578063dd62ed3e1461026d576100b4565b806306fdde03146100b9578063095ea7b3146100d757806318160ddd1461010757806323b872dd14610125578063313ce567146101555780633950935114610173575b600080fd5b6100c161029d565b6040516100ce9190610ca9565b60405180910390f35b6100f160048036038101906100ec9190610d64565b61032f565b6040516100fe9190610dbf565b60405180910390f35b61010f610352565b60405161011c9190610de9565b60405180910390f35b61013f600480360381019061013a9190610e04565b61035c565b60405161014c9190610dbf565b60405180910390f35b61015d61038b565b60405161016a9190610e73565b60405180910390f35b61018d60048036038101906101889190610d64565b610394565b60405161019a9190610dbf565b60405180910390f35b6101bd60048036038101906101b89190610d64565b6103cb565b005b6101d960048036038101906101d49190610e8e565b6103d9565b6040516101e69190610de9565b60405180910390f35b6101f7610421565b6040516102049190610ca9565b60405180910390f35b61022760048036038101906102229190610d64565b6104b3565b6040516102349190610dbf565b60405180910390f35b61025760048036038101906102529190610d64565b61052a565b6040516102649190610dbf565b60405180910390f35b61028760048036038101906102829190610ebb565b61054d565b6040516102949190610de9565b60405180910390f35b6060600380546102ac90610f2a565b80601f01602080910402602001604051908101604052809291908181526020018280546102d890610f2a565b80156103255780601f106102fa57610100808354040283529160200191610325565b820191906000526020600020905b81548152906001019060200180831161030857829003601f168201915b5050505050905090565b60008061033a6105d4565b90506103478185856105dc565b600191505092915050565b6000600254905090565b6000806103676105d4565b90506103748582856107a5565b61037f858585610831565b60019150509392505050565b60006012905090565b60008061039f6105d4565b90506103c08185856103b1858961054d565b6103bb9190610f8a565b6105dc565b600191505092915050565b6103d58282610ab0565b5050565b60008060008373ffffffffffffffffffffffffffffffffffffffff1673ffffffffffffffffffffffffffffffffffffffff168152602001908152602001600020549050919050565b60606004805461043090610f2a565b80601f016020809104026020016040519081016040528092919081815260200182805461045c90610f2a565b80156104a95780601f1061047e576101008083540402835291602001916104a9565b820191906000526020600020905b81548152906001019060200180831161048c57829003601f168201915b5050505050905090565b6000806104be6105d4565b905060006104cc828661054d565b905083811015610511576040517f08c379a000000000000000000000000000000000000000000000000000000000815260040161050890611030565b60405180910390fd5b61051e82868684036105dc565b60019250505092915050565b6000806105356105d4565b9050610542818585610831565b600191505092915050565b6000600160008473ffffffffffffffffffffffffffffffffffffffff1673ffffffffffffffffffffffffffffffffffffffff16815260200190815260200160002060008373ffffffffffffffffffffffffffffffffffffffff1673ffffffffffffffffffffffffffffffffffffffff16815260200190815260200160002054905092915050565b600033905090565b600073ffffffffffffffffffffffffffffffffffffffff168373ffffffffffffffffffffffffffffffffffffffff160361064b576040517f08c379a0000000000000000000000000000000000000000000000000000000008152600401610642906110c2565b60405180910390fd5b600073ffffffffffffffffffffffffffffffffffffffff168273ffffffffffffffffffffffffffffffffffffffff16036106ba576040517f08c379a00000000000000000000000000000000000000000000000000000000081526004016106b190611154565b60405180910390fd5b80600160008573ffffffffffffffffffffffffffffffffffffffff1673ffffffffffffffffffffffffffffffffffffffff16815260200190815260200160002060008473ffffffffffffffffffffffffffffffffffffffff1673ffffffffffffffffffffffffffffffffffffffff168152602001908152602001600020819055508173ffffffffffffffffffffffffffffffffffffffff168373ffffffffffffffffffffffffffffffffffffffff167f8c5be1e5ebec7d5bd14f71427d1e84f3dd0314c0f7b2291e5b200ac8c7c3b925836040516107989190610de9565b60405180910390a3505050565b60006107b1848461054d565b90507fffffffffffffffffffffffffffffffffffffffffffffffffffffffffffffffff811461082b578181101561081d576040517f08c379a0000000000000000000000000000000000000000000000000000000008152600401610814906111c0565b60405180910390fd5b61082a84848484036105dc565b5b50505050565b600073ffffffffffffffffffffffffffffffffffffffff168373ffffffffffffffffffffffffffffffffffffffff16036108a0576040517f08c379a000000000000000000000000000000000000000000000000000000000815260040161089790611252565b60405180910390fd5b600073ffffffffffffffffffffffffffffffffffffffff168273ffffffffffffffffffffffffffffffffffffffff160361090f576040517f08c379a0000000000000000000000000000000000000000000000000000000008152600401610906906112e4565b60405180910390fd5b61091a838383610c0f565b60008060008573ffffffffffffffffffffffffffffffffffffffff1673ffffffffffffffffffffffffffffffffffffffff168152602001908152602001600020549050818110156109a0576040517f08c379a000000000000000000000000000000000000000000000000000000000815260040161099790611376565b60405180910390fd5b8181036000808673ffffffffffffffffffffffffffffffffffffffff1673ffffffffffffffffffffffffffffffffffffffff16815260200190815260200160002081905550816000808573ffffffffffffffffffffffffffffffffffffffff1673ffffffffffffffffffffffffffffffffffffffff1681526020019081526020016000206000828254610a339190610f8a565b925050819055508273ffffffffffffffffffffffffffffffffffffffff168473ffffffffffffffffffffffffffffffffffffffff167fddf252ad1be2c89b69c2b068fc378daa952ba7f163c4a11628f55a4df523b3ef84604051610a979190610de9565b60405180910390a3610aaa848484610c14565b50505050565b600073ffffffffffffffffffffffffffffffffffffffff168273ffffffffffffffffffffffffffffffffffffffff1603610b1f576040517f08c379a0000000000000000000000000000000000000000000000000000000008152600401610b16906113e2565b60405180910390fd5b610b2b60008383610c0f565b8060026000828254610b3d9190610f8a565b92505081905550806000808473ffffffffffffffffffffffffffffffffffffffff1673ffffffffffffffffffffffffffffffffffffffff1681526020019081526020016000206000828254610b929190610f8a565b925050819055508173ffffffffffffffffffffffffffffffffffffffff16600073ffffffffffffffffffffffffffffffffffffffff167fddf252ad1be2c89b69c2b068fc378daa952ba7f163c4a11628f55a4df523b3ef83604051610bf79190610de9565b60405180910390a3610c0b60008383610c14565b5050565b505050565b505050565b600081519050919050565b600082825260208201905092915050565b60005b83811015610c53578082015181840152602081019050610c38565b60008484015250505050565b6000601f19601f8301169050919050565b6000610c7b82610c19565b610c858185610c24565b9350610c95818560208601610c35565b610c9e81610c5f565b840191505092915050565b60006020820190508181036000830152610cc38184610c70565b905092915050565b600080fd5b600073ffffffffffffffffffffffffffffffffffffffff82169050919050565b6000610cfb82610cd0565b9050919050565b610d0b81610cf0565b8114610d1657600080fd5b50565b600081359050610d2881610d02565b92915050565b6000819050919050565b610d4181610d2e565b8114610d4c57600080fd5b50565b600081359050610d5e81610d38565b92915050565b60008060408385031215610d7b57610d7a610ccb565b5b6000610d8985828601610d19565b9250506020610d9a85828601610d4f565b9150509250929050565b60008115159050919050565b610db981610da4565b82525050565b6000602082019050610dd46000830184610db0565b92915050565b610de381610d2e565b82525050565b6000602082019050610dfe6000830184610dda565b92915050565b600080600060608486031215610e1d57610e1c610ccb565b5b6000610e2b86828701610d19565b9350506020610e3c86828701610d19565b9250506040610e4d86828701610d4f565b9150509250925092565b600060ff82169050919050565b610e6d81610e57565b82525050565b6000602082019050610e886000830184610e64565b92915050565b600060208284031215610ea457610ea3610ccb565b5b6000610eb284828501610d19565b91505092915050565b60008060408385031215610ed257610ed1610ccb565b5b6000610ee085828601610d19565b9250506020610ef185828601610d19565b9150509250929050565b7f4e487b7100000000000000000000000000000000000000000000000000000000600052602260045260246000fd5b60006002820490506001821680610f4257607f821691505b602082108103610f5557610f54610efb565b5b50919050565b7f4e487b7100000000000000000000000000000000000000000000000000000000600052601160045260246000fd5b6000610f9582610d2e565b9150610fa083610d2e565b9250828201905080821115610fb857610fb7610f5b565b5b92915050565b7f45524332303a2064656372656173656420616c6c6f77616e63652062656c6f7760008201527f207a65726f000000000000000000000000000000000000000000000000000000602082015250565b600061101a602583610c24565b915061102582610fbe565b604082019050919050565b600060208201905081810360008301526110498161100d565b9050919050565b7f45524332303a20617070726f76652066726f6d20746865207a65726f2061646460008201527f7265737300000000000000000000000000000000000000000000000000000000602082015250565b60006110ac602483610c24565b91506110b782611050565b604082019050919050565b600060208201905081810360008301526110db8161109f565b9050919050565b7f45524332303a20617070726f766520746f20746865207a65726f20616464726560008201527f7373000000000000000000000000000000000000000000000000000000000000602082015250565b600061113e602283610c24565b9150611149826110e2565b604082019050919050565b6000602082019050818103600083015261116d81611131565b9050919050565b7f45524332303a20696e73756666696369656e7420616c6c6f77616e6365000000600082015250565b60006111aa601d83610c24565b91506111b582611174565b602082019050919050565b600060208201905081810360008301526111d98161119d565b9050919050565b7f45524332303a207472616e736665722066726f6d20746865207a65726f20616460008201527f6472657373000000000000000000000000000000000000000000000000000000602082015250565b600061123c602583610c24565b9150611247826111e0565b604082019050919050565b6000602082019050818103600083015261126b8161122f565b9050919050565b7f45524332303a207472616e7366657220746f20746865207a65726f206164647260008201527f6573730000000000000000000000000000000000000000000000000000000000602082015250565b60006112ce602383610c24565b91506112d982611272565b604082019050919050565b600060208201905081810360008301526112fd816112c1565b9050919050565b7f45524332303a207472616e7366657220616d6f756e742065786365656473206260008201527f616c616e63650000000000000000000000000000000000000000000000000000602082015250565b6000611360602683610c24565b915061136b82611304565b604082019050919050565b6000602082019050818103600083015261138f81611353565b9050919050565b7f45524332303a206d696e7420746f20746865207a65726f206164647265737300600082015250565b60006113cc601f83610c24565b91506113d782611396565b602082019050919050565b600060208201905081810360008301526113fb816113bf565b905091905056fea2646970667358221220b94a6bf167192f4c6adfa576757369d1897de1fd5ed531a5640714ad4843762a64736f6c63430008110033",
  "linkReferences": {},
  "deployedLinkReferences": {}
}