{
  "contractName": "MetaCoin",
  "abi": [
    {
      "inputs": [],
      "payable": false,
      "stateMutability": "nonpayable",
      "type": "constructor"
    },
    {
      "anonymous": false,
      "inputs": [
        {
          "indexed": true,
          "internalType": "address",
          "name": "_from",
          "type": "address"
        },
        {
          "indexed": true,
          "internalType": "address",
          "name": "_to",
          "type": "address"
        },
        {
          "indexed": false,
          "internalType": "uint256",
          "name": "_value",
          "type": "uint256"
        }
      ],
      "name": "Transfer",
      "type": "event"
    },
    {
      "constant": true,
      "inputs": [],
      "name": "name",
      "outputs": [
        {
          "internalType": "string",
          "name": "",
          "type": "string"
        }
      ],
      "payable": false,
      "stateMutability": "view",
      "type": "function"
    },
    {
      "constant": false,
      "inputs": [
        {
          "internalType": "address",
          "name": "receiver",
          "type": "address"
        },
        {
          "internalType": "uint256",
          "name": "amount",
          "type": "uint256"
        }
      ],
      "name": "sendCoin",
      "outputs": [
        {
          "internalType": "bool",
          "name": "sufficient",
          "type": "bool"
        }
      ],
      "payable": false,
      "stateMutability": "nonpayable",
      "type": "function"
    },
    {
      "constant": false,
      "inputs": [
        {
          "internalType": "address",
          "name": "receiver",
          "type": "address"
        },
        {
          "internalType": "uint256",
          "name": "amount",
          "type": "uint256"
        }
      ],
      "name": "faucetCoin",
      "outputs": [
        {
          "internalType": "bool",
          "name": "sufficient",
          "type": "bool"
        }
      ],
      "payable": false,
      "stateMutability": "nonpayable",
      "type": "function"
    },
    {
      "constant": true,
      "inputs": [
        {
          "internalType": "address",
          "name": "addr",
          "type": "address"
        }
      ],
      "name": "getBalanceInEth",
      "outputs": [
        {
          "internalType": "uint256",
          "name": "",
          "type": "uint256"
        }
      ],
      "payable": false,
      "stateMutability": "view",
      "type": "function"
    },
    {
      "constant": true,
      "inputs": [
        {
          "internalType": "address",
          "name": "addr",
          "type": "address"
        }
      ],
      "name": "getBalance",
      "outputs": [
        {
          "internalType": "uint256",
          "name": "",
          "type": "uint256"
        }
      ],
      "payable": false,
      "stateMutability": "view",
      "type": "function"
    }
  ],
  "bytecode": "0x60806040526040518060400160405280600e81526020017f5465737420436f696e204e6963650000000000000000000000000000000000008152506001908051906020019061004f9291906100a7565b5034801561005c57600080fd5b506127106000803273ffffffffffffffffffffffffffffffffffffffff1673ffffffffffffffffffffffffffffffffffffffff1681526020019081526020016000208190555061014c565b828054600181600116156101000203166002900490600052602060002090601f016020900481019282601f106100e857805160ff1916838001178555610116565b82800160010185558215610116579182015b828111156101155782518255916020019190600101906100fa565b5b5090506101239190610127565b5090565b61014991905b8082111561014557600081600090555060010161012d565b5090565b90565b6106308061015b6000396000f3fe608060405234801561001057600080fd5b50600436106100575760003560e01c806306fdde031461005c5780636c18bdee146100df5780637bd703e81461014557806390b98a111461019d578063f8b2cb4f14610203575b600080fd5b61006461025b565b6040518080602001828103825283818151815260200191508051906020019080838360005b838110156100a4578082015181840152602081019050610089565b50505050905090810190601f1680156100d15780820380516001836020036101000a031916815260200191505b509250505060405180910390f35b61012b600480360360408110156100f557600080fd5b81019080803573ffffffffffffffffffffffffffffffffffffffff169060200190929190803590602001909291905050506102f9565b604051808215151515815260200191505060405180910390f35b6101876004803603602081101561015b57600080fd5b81019080803573ffffffffffffffffffffffffffffffffffffffff1690602001909291905050506103b6565b6040518082815260200191505060405180910390f35b6101e9600480360360408110156101b357600080fd5b81019080803573ffffffffffffffffffffffffffffffffffffffff1690602001909291908035906020019092919050505061045a565b604051808215151515815260200191505060405180910390f35b6102456004803603602081101561021957600080fd5b81019080803573ffffffffffffffffffffffffffffffffffffffff1690602001909291905050506105b3565b6040518082815260200191505060405180910390f35b60018054600181600116156101000203166002900480601f0160208091040260200160405190810160405280929190818152602001828054600181600116156101000203166002900480156102f15780601f106102c6576101008083540402835291602001916102f1565b820191906000526020600020905b8154815290600101906020018083116102d457829003601f168201915b505050505081565b6000816000803373ffffffffffffffffffffffffffffffffffffffff1673ffffffffffffffffffffffffffffffffffffffff168152602001908152602001600020600082825401925050819055508273ffffffffffffffffffffffffffffffffffffffff163373ffffffffffffffffffffffffffffffffffffffff167fddf252ad1be2c89b69c2b068fc378daa952ba7f163c4a11628f55a4df523b3ef846040518082815260200191505060405180910390a36001905092915050565b600073__ConvertLib____________________________6396e4ee3d6103db846105b3565b60026040518363ffffffff1660e01b8152600401808381526020018281526020019250505060206040518083038186803b15801561041857600080fd5b505af415801561042c573d6000803e3d6000fd5b505050506040513d602081101561044257600080fd5b81019080805190602001909291905050509050919050565b6000816000803373ffffffffffffffffffffffffffffffffffffffff1673ffffffffffffffffffffffffffffffffffffffff1681526020019081526020016000205410156104ab57600090506105ad565b816000803373ffffffffffffffffffffffffffffffffffffffff1673ffffffffffffffffffffffffffffffffffffffff16815260200190815260200160002060008282540392505081905550816000808573ffffffffffffffffffffffffffffffffffffffff1673ffffffffffffffffffffffffffffffffffffffff168152602001908152602001600020600082825401925050819055508273ffffffffffffffffffffffffffffffffffffffff163373ffffffffffffffffffffffffffffffffffffffff167fddf252ad1be2c89b69c2b068fc378daa952ba7f163c4a11628f55a4df523b3ef846040518082815260200191505060405180910390a3600190505b92915050565b60008060008373ffffffffffffffffffffffffffffffffffffffff1673ffffffffffffffffffffffffffffffffffffffff16815260200190815260200160002054905091905056fea265627a7a723158203013821c434cea863dcd58857daa73c7b698ea3bb5e6eba07b2e6da3fbbbc6d164736f6c63430005100032",
  "source": "// SPDX-License-Identifier: MIT\r\npragma solidity >=0.4.25 <0.7.0;\r\n\r\nimport \"./ConvertLib.sol\";\r\n\r\n// This is just a simple example of a coin-like contract.\r\n// It is not standards compatible and cannot be expected to talk to other\r\n// coin/token contracts. If you want to create a standards-compliant\r\n// token, see: https://github.com/ConsenSys/Tokens. Cheers!\r\n\r\ncontract MetaCoin {\r\n    mapping(address => uint256) balances;\r\n\r\n    event Transfer(address indexed _from, address indexed _to, uint256 _value);\r\n\r\n    constructor() public {\r\n        balances[tx.origin] = 10000;\r\n    }\r\n\r\n    string public name = \"Test Coin Nice\";\r\n\r\n    function sendCoin(address receiver, uint256 amount)\r\n        public\r\n        returns (bool sufficient)\r\n    {\r\n        if (balances[msg.sender] < amount) return false;\r\n        balances[msg.sender] -= amount;\r\n        balances[receiver] += amount;\r\n        emit Transfer(msg.sender, receiver, amount);\r\n        return true;\r\n    }\r\n\r\n    function faucetCoin(address receiver, uint256 amount)\r\n        public\r\n        returns (bool sufficient)\r\n    {\r\n        balances[msg.sender] += amount;\r\n        emit Transfer(msg.sender, receiver, amount);\r\n        return true;\r\n    }\r\n\r\n    function getBalanceInEth(address addr) public view returns (uint256) {\r\n        return ConvertLib.convert(getBalance(addr), 2);\r\n    }\r\n\r\n    function getBalance(address addr) public view returns (uint256) {\r\n        return balances[addr];\r\n    }\r\n}\r\n",
  "sourcePath": "C:\\Work\\ethereum-boilerplate\\Truffle\\contracts\\MetaCoin.sol",
  "compiler": {
    "name": "solc",
    "version": "0.5.16+commit.9c3226ce.Emscripten.clang"
  },
  "schemaVersion": "3.4.3",
  "updatedAt": "2021-11-22T22:41:06.334Z",
  "networkType": "ethereum",
  "devdoc": {
    "methods": {}
  },
  "userdoc": {
    "methods": {}
  }
}